{
  "contractName": "ConvertLib",
  "abi": [
    {
      "constant": false,
      "inputs": [
        {
          "name": "amount",
          "type": "uint256"
        },
        {
          "name": "conversionRate",
          "type": "uint256"
        }
      ],
      "name": "convert",
      "outputs": [
        {
          "name": "convertedAmount",
          "type": "uint256"
        }
      ],
      "payable": false,
      "stateMutability": "nonpayable",
      "type": "function"
    }
  ],
  "bytecode": "0x6060604052341561000f57600080fd5b60b08061001d6000396000f300606060405260043610603f576000357c0100000000000000000000000000000000000000000000000000000000900463ffffffff16806396e4ee3d146044575b600080fd5b606160048080359060200190919080359060200190919050506077565b6040518082815260200191505060405180910390f35b60008183029050929150505600a165627a7a72305820bfc1fc8ba6a1daf2711625e8b9c25f2355cba6a404e88c2ed201487a0d0c01c40029",
  "source": "pragma solidity ^0.4.4;\n\nlibrary ConvertLib{\n  function convert(uint amount,uint conversionRate) returns (uint convertedAmount)\n  {\n    return amount * conversionRate;\n  }\n}\n",
  "sourcePath": "/Users/nicholas.jakubowski/Accenture/blockchain/pluralsight/demo/helloWorld/contracts/ConvertLib.sol",
  "compiler": {
    "name": "solc",
    "version": "0.4.19+commit.c4cbbb05.Emscripten.clang"
  },
  "schemaVersion": "2.0.0",
  "updatedAt": "2018-03-15T00:48:12.004Z"
}